{
  "contractName": "NFT",
  "abi": [
    {
      "inputs": [],
      "stateMutability": "nonpayable",
      "type": "constructor"
    },
    {
      "anonymous": false,
      "inputs": [
        {
          "indexed": true,
          "internalType": "address",
          "name": "owner",
          "type": "address"
        },
        {
          "indexed": true,
          "internalType": "address",
          "name": "approved",
          "type": "address"
        },
        {
          "indexed": true,
          "internalType": "uint256",
          "name": "tokenId",
          "type": "uint256"
        }
      ],
      "name": "Approval",
      "type": "event"
    },
    {
      "anonymous": false,
      "inputs": [
        {
          "indexed": true,
          "internalType": "address",
          "name": "owner",
          "type": "address"
        },
        {
          "indexed": true,
          "internalType": "address",
          "name": "operator",
          "type": "address"
        },
        {
          "indexed": false,
          "internalType": "bool",
          "name": "approved",
          "type": "bool"
        }
      ],
      "name": "ApprovalForAll",
      "type": "event"
    },
    {
      "anonymous": false,
      "inputs": [
        {
          "indexed": true,
          "internalType": "address",
          "name": "from",
          "type": "address"
        },
        {
          "indexed": true,
          "internalType": "address",
          "name": "to",
          "type": "address"
        },
        {
          "indexed": true,
          "internalType": "uint256",
          "name": "tokenId",
          "type": "uint256"
        }
      ],
      "name": "Transfer",
      "type": "event"
    },
    {
      "inputs": [
        {
          "internalType": "address",
          "name": "to",
          "type": "address"
        },
        {
          "internalType": "uint256",
          "name": "tokenId",
          "type": "uint256"
        }
      ],
      "name": "approve",
      "outputs": [],
      "stateMutability": "nonpayable",
      "type": "function"
    },
    {
      "inputs": [
        {
          "internalType": "address",
          "name": "owner",
          "type": "address"
        }
      ],
      "name": "balanceOf",
      "outputs": [
        {
          "internalType": "uint256",
          "name": "",
          "type": "uint256"
        }
      ],
      "stateMutability": "view",
      "type": "function",
      "constant": true
    },
    {
      "inputs": [
        {
          "internalType": "uint256",
          "name": "tokenId",
          "type": "uint256"
        }
      ],
      "name": "getApproved",
      "outputs": [
        {
          "internalType": "address",
          "name": "",
          "type": "address"
        }
      ],
      "stateMutability": "view",
      "type": "function",
      "constant": true
    },
    {
      "inputs": [
        {
          "internalType": "address",
          "name": "owner",
          "type": "address"
        },
        {
          "internalType": "address",
          "name": "operator",
          "type": "address"
        }
      ],
      "name": "isApprovedForAll",
      "outputs": [
        {
          "internalType": "bool",
          "name": "",
          "type": "bool"
        }
      ],
      "stateMutability": "view",
      "type": "function",
      "constant": true
    },
    {
      "inputs": [],
      "name": "name",
      "outputs": [
        {
          "internalType": "string",
          "name": "",
          "type": "string"
        }
      ],
      "stateMutability": "view",
      "type": "function",
      "constant": true
    },
    {
      "inputs": [
        {
          "internalType": "uint256",
          "name": "tokenId",
          "type": "uint256"
        }
      ],
      "name": "ownerOf",
      "outputs": [
        {
          "internalType": "address",
          "name": "",
          "type": "address"
        }
      ],
      "stateMutability": "view",
      "type": "function",
      "constant": true
    },
    {
      "inputs": [
        {
          "internalType": "address",
          "name": "from",
          "type": "address"
        },
        {
          "internalType": "address",
          "name": "to",
          "type": "address"
        },
        {
          "internalType": "uint256",
          "name": "tokenId",
          "type": "uint256"
        }
      ],
      "name": "safeTransferFrom",
      "outputs": [],
      "stateMutability": "nonpayable",
      "type": "function"
    },
    {
      "inputs": [
        {
          "internalType": "address",
          "name": "from",
          "type": "address"
        },
        {
          "internalType": "address",
          "name": "to",
          "type": "address"
        },
        {
          "internalType": "uint256",
          "name": "tokenId",
          "type": "uint256"
        },
        {
          "internalType": "bytes",
          "name": "data",
          "type": "bytes"
        }
      ],
      "name": "safeTransferFrom",
      "outputs": [],
      "stateMutability": "nonpayable",
      "type": "function"
    },
    {
      "inputs": [
        {
          "internalType": "address",
          "name": "operator",
          "type": "address"
        },
        {
          "internalType": "bool",
          "name": "approved",
          "type": "bool"
        }
      ],
      "name": "setApprovalForAll",
      "outputs": [],
      "stateMutability": "nonpayable",
      "type": "function"
    },
    {
      "inputs": [
        {
          "internalType": "bytes4",
          "name": "interfaceId",
          "type": "bytes4"
        }
      ],
      "name": "supportsInterface",
      "outputs": [
        {
          "internalType": "bool",
          "name": "",
          "type": "bool"
        }
      ],
      "stateMutability": "view",
      "type": "function",
      "constant": true
    },
    {
      "inputs": [],
      "name": "symbol",
      "outputs": [
        {
          "internalType": "string",
          "name": "",
          "type": "string"
        }
      ],
      "stateMutability": "view",
      "type": "function",
      "constant": true
    },
    {
      "inputs": [
        {
          "internalType": "uint256",
          "name": "tokenId",
          "type": "uint256"
        }
      ],
      "name": "tokenURI",
      "outputs": [
        {
          "internalType": "string",
          "name": "",
          "type": "string"
        }
      ],
      "stateMutability": "view",
      "type": "function",
      "constant": true
    },
    {
      "inputs": [
        {
          "internalType": "address",
          "name": "from",
          "type": "address"
        },
        {
          "internalType": "address",
          "name": "to",
          "type": "address"
        },
        {
          "internalType": "uint256",
          "name": "tokenId",
          "type": "uint256"
        }
      ],
      "name": "transferFrom",
      "outputs": [],
      "stateMutability": "nonpayable",
      "type": "function"
    },
    {
      "inputs": [
        {
          "internalType": "string",
          "name": "name",
          "type": "string"
        },
        {
          "internalType": "string",
          "name": "description",
          "type": "string"
        },
        {
          "internalType": "string",
          "name": "image",
          "type": "string"
        }
      ],
      "name": "createNFT",
      "outputs": [
        {
          "internalType": "uint256",
          "name": "",
          "type": "uint256"
        }
      ],
      "stateMutability": "nonpayable",
      "type": "function"
    },
    {
      "inputs": [
        {
          "internalType": "uint256",
          "name": "tokenId",
          "type": "uint256"
        }
      ],
      "name": "getNFT",
      "outputs": [
        {
          "internalType": "string",
          "name": "",
          "type": "string"
        },
        {
          "internalType": "string",
          "name": "",
          "type": "string"
        },
        {
          "internalType": "string",
          "name": "",
          "type": "string"
        }
      ],
      "stateMutability": "view",
      "type": "function",
      "constant": true
    }
  ],
  "bytecode": "0x60806040523480156200001157600080fd5b506040518060400160405280600e81526020017f536f6369616c4d656469614e46540000000000000000000000000000000000008152506040518060400160405280600581526020017f534d4e465400000000000000000000000000000000000000000000000000000081525081600090816200008f919062000324565b508060019081620000a1919062000324565b5050506200040b565b600081519050919050565b7f4e487b7100000000000000000000000000000000000000000000000000000000600052604160045260246000fd5b7f4e487b7100000000000000000000000000000000000000000000000000000000600052602260045260246000fd5b600060028204905060018216806200012c57607f821691505b602082108103620001425762000141620000e4565b5b50919050565b60008190508160005260206000209050919050565b60006020601f8301049050919050565b600082821b905092915050565b600060088302620001ac7fffffffffffffffffffffffffffffffffffffffffffffffffffffffffffffffff826200016d565b620001b886836200016d565b95508019841693508086168417925050509392505050565b6000819050919050565b6000819050919050565b600062000205620001ff620001f984620001d0565b620001da565b620001d0565b9050919050565b6000819050919050565b6200022183620001e4565b6200023962000230826200020c565b8484546200017a565b825550505050565b600090565b6200025062000241565b6200025d81848462000216565b505050565b5b8181101562000285576200027960008262000246565b60018101905062000263565b5050565b601f821115620002d4576200029e8162000148565b620002a9846200015d565b81016020851015620002b9578190505b620002d1620002c8856200015d565b83018262000262565b50505b505050565b600082821c905092915050565b6000620002f960001984600802620002d9565b1980831691505092915050565b6000620003148383620002e6565b9150826002028217905092915050565b6200032f82620000aa565b67ffffffffffffffff8111156200034b576200034a620000b5565b5b62000357825462000113565b6200036482828562000289565b600060209050601f8311600181146200039c576000841562000387578287015190505b62000393858262000306565b86555062000403565b601f198416620003ac8662000148565b60005b82811015620003d657848901518255600182019150602085019450602081019050620003af565b86831015620003f65784890151620003f2601f891682620002e6565b8355505b6001600288020188555050505b505050505050565b612c23806200041b6000396000f3fe608060405234801561001057600080fd5b50600436106100f55760003560e01c80636352211e11610097578063a22cb46511610066578063a22cb465146102ac578063b88d4fde146102c8578063c87b56dd146102e4578063e985e9c514610314576100f5565b80636352211e146101fe57806370a082311461022e57806395d89b411461025e5780639f8e9dbc1461027c576100f5565b8063095ea7b3116100d3578063095ea7b31461017857806323b872dd1461019457806342842e0e146101b0578063576f7ea7146101cc576100f5565b806301ffc9a7146100fa57806306fdde031461012a578063081812fc14610148575b600080fd5b610114600480360381019061010f9190611aa1565b610344565b6040516101219190611ae9565b60405180910390f35b610132610426565b60405161013f9190611b94565b60405180910390f35b610162600480360381019061015d9190611bec565b6104b8565b60405161016f9190611c5a565b60405180910390f35b610192600480360381019061018d9190611ca1565b6104fe565b005b6101ae60048036038101906101a99190611ce1565b610615565b005b6101ca60048036038101906101c59190611ce1565b610675565b005b6101e660048036038101906101e19190611bec565b610695565b6040516101f593929190611d34565b60405180910390f35b61021860048036038101906102139190611bec565b6108d7565b6040516102259190611c5a565b60405180910390f35b61024860048036038101906102439190611d80565b61095d565b6040516102559190611dbc565b60405180910390f35b610266610a14565b6040516102739190611b94565b60405180910390f35b61029660048036038101906102919190611f0c565b610aa6565b6040516102a39190611dbc565b60405180910390f35b6102c660048036038101906102c19190611fdf565b610b48565b005b6102e260048036038101906102dd91906120c0565b610b5e565b005b6102fe60048036038101906102f99190611bec565b610bc0565b60405161030b9190611b94565b60405180910390f35b61032e60048036038101906103299190612143565b610c28565b60405161033b9190611ae9565b60405180910390f35b60007f80ac58cd000000000000000000000000000000000000000000000000000000007bffffffffffffffffffffffffffffffffffffffffffffffffffffffff1916827bffffffffffffffffffffffffffffffffffffffffffffffffffffffff1916148061040f57507f5b5e139f000000000000000000000000000000000000000000000000000000007bffffffffffffffffffffffffffffffffffffffffffffffffffffffff1916827bffffffffffffffffffffffffffffffffffffffffffffffffffffffff1916145b8061041f575061041e82610cbc565b5b9050919050565b606060008054610435906121b2565b80601f0160208091040260200160405190810160405280929190818152602001828054610461906121b2565b80156104ae5780601f10610483576101008083540402835291602001916104ae565b820191906000526020600020905b81548152906001019060200180831161049157829003601f168201915b5050505050905090565b60006104c382610d26565b6004600083815260200190815260200160002060009054906101000a900473ffffffffffffffffffffffffffffffffffffffff169050919050565b6000610509826108d7565b90508073ffffffffffffffffffffffffffffffffffffffff168373ffffffffffffffffffffffffffffffffffffffff1603610579576040517f08c379a000000000000000000000000000000000000000000000000000000000815260040161057090612255565b60405180910390fd5b8073ffffffffffffffffffffffffffffffffffffffff16610598610d71565b73ffffffffffffffffffffffffffffffffffffffff1614806105c757506105c6816105c1610d71565b610c28565b5b610606576040517f08c379a00000000000000000000000000000000000000000000000000000000081526004016105fd906122e7565b60405180910390fd5b6106108383610d79565b505050565b610626610620610d71565b82610e32565b610665576040517f08c379a000000000000000000000000000000000000000000000000000000000815260040161065c90612379565b60405180910390fd5b610670838383610ec7565b505050565b61069083838360405180602001604052806000815250610b5e565b505050565b60608060606106a3846111c0565b6106e2576040517f08c379a00000000000000000000000000000000000000000000000000000000081526004016106d9906123e5565b60405180910390fd5b600060076000868152602001908152602001600020604051806060016040529081600082018054610712906121b2565b80601f016020809104026020016040519081016040528092919081815260200182805461073e906121b2565b801561078b5780601f106107605761010080835404028352916020019161078b565b820191906000526020600020905b81548152906001019060200180831161076e57829003601f168201915b505050505081526020016001820180546107a4906121b2565b80601f01602080910402602001604051908101604052809291908181526020018280546107d0906121b2565b801561081d5780601f106107f25761010080835404028352916020019161081d565b820191906000526020600020905b81548152906001019060200180831161080057829003601f168201915b50505050508152602001600282018054610836906121b2565b80601f0160208091040260200160405190810160405280929190818152602001828054610862906121b2565b80156108af5780601f10610884576101008083540402835291602001916108af565b820191906000526020600020905b81548152906001019060200180831161089257829003601f168201915b5050505050815250509050806000015181602001518260400151935093509350509193909250565b6000806108e383611201565b9050600073ffffffffffffffffffffffffffffffffffffffff168173ffffffffffffffffffffffffffffffffffffffff1603610954576040517f08c379a000000000000000000000000000000000000000000000000000000000815260040161094b90612451565b60405180910390fd5b80915050919050565b60008073ffffffffffffffffffffffffffffffffffffffff168273ffffffffffffffffffffffffffffffffffffffff16036109cd576040517f08c379a00000000000000000000000000000000000000000000000000000000081526004016109c4906124e3565b60405180910390fd5b600360008373ffffffffffffffffffffffffffffffffffffffff1673ffffffffffffffffffffffffffffffffffffffff168152602001908152602001600020549050919050565b606060018054610a23906121b2565b80601f0160208091040260200160405190810160405280929190818152602001828054610a4f906121b2565b8015610a9c5780601f10610a7157610100808354040283529160200191610a9c565b820191906000526020600020905b815481529060010190602001808311610a7f57829003601f168201915b5050505050905090565b6000610ab2600661123e565b6000610abe6006611254565b9050610aca3382611262565b604051806060016040528086815260200185815260200184815250600760008381526020019081526020016000206000820151816000019081610b0d91906126af565b506020820151816001019081610b2391906126af565b506040820151816002019081610b3991906126af565b50905050809150509392505050565b610b5a610b53610d71565b838361147f565b5050565b610b6f610b69610d71565b83610e32565b610bae576040517f08c379a0000000000000000000000000000000000000000000000000000000008152600401610ba590612379565b60405180910390fd5b610bba848484846115eb565b50505050565b6060610bcb82610d26565b6000610bd5611647565b90506000815111610bf55760405180602001604052806000815250610c20565b80610bff8461165e565b604051602001610c109291906127bd565b6040516020818303038152906040525b915050919050565b6000600560008473ffffffffffffffffffffffffffffffffffffffff1673ffffffffffffffffffffffffffffffffffffffff16815260200190815260200160002060008373ffffffffffffffffffffffffffffffffffffffff1673ffffffffffffffffffffffffffffffffffffffff16815260200190815260200160002060009054906101000a900460ff16905092915050565b60007f01ffc9a7000000000000000000000000000000000000000000000000000000007bffffffffffffffffffffffffffffffffffffffffffffffffffffffff1916827bffffffffffffffffffffffffffffffffffffffffffffffffffffffff1916149050919050565b610d2f816111c0565b610d6e576040517f08c379a0000000000000000000000000000000000000000000000000000000008152600401610d6590612451565b60405180910390fd5b50565b600033905090565b816004600083815260200190815260200160002060006101000a81548173ffffffffffffffffffffffffffffffffffffffff021916908373ffffffffffffffffffffffffffffffffffffffff160217905550808273ffffffffffffffffffffffffffffffffffffffff16610dec836108d7565b73ffffffffffffffffffffffffffffffffffffffff167f8c5be1e5ebec7d5bd14f71427d1e84f3dd0314c0f7b2291e5b200ac8c7c3b92560405160405180910390a45050565b600080610e3e836108d7565b90508073ffffffffffffffffffffffffffffffffffffffff168473ffffffffffffffffffffffffffffffffffffffff161480610e805750610e7f8185610c28565b5b80610ebe57508373ffffffffffffffffffffffffffffffffffffffff16610ea6846104b8565b73ffffffffffffffffffffffffffffffffffffffff16145b91505092915050565b8273ffffffffffffffffffffffffffffffffffffffff16610ee7826108d7565b73ffffffffffffffffffffffffffffffffffffffff1614610f3d576040517f08c379a0000000000000000000000000000000000000000000000000000000008152600401610f3490612853565b60405180910390fd5b600073ffffffffffffffffffffffffffffffffffffffff168273ffffffffffffffffffffffffffffffffffffffff1603610fac576040517f08c379a0000000000000000000000000000000000000000000000000000000008152600401610fa3906128e5565b60405180910390fd5b610fb9838383600161172c565b8273ffffffffffffffffffffffffffffffffffffffff16610fd9826108d7565b73ffffffffffffffffffffffffffffffffffffffff161461102f576040517f08c379a000000000000000000000000000000000000000000000000000000000815260040161102690612853565b60405180910390fd5b6004600082815260200190815260200160002060006101000a81549073ffffffffffffffffffffffffffffffffffffffff02191690556001600360008573ffffffffffffffffffffffffffffffffffffffff1673ffffffffffffffffffffffffffffffffffffffff168152602001908152602001600020600082825403925050819055506001600360008473ffffffffffffffffffffffffffffffffffffffff1673ffffffffffffffffffffffffffffffffffffffff16815260200190815260200160002060008282540192505081905550816002600083815260200190815260200160002060006101000a81548173ffffffffffffffffffffffffffffffffffffffff021916908373ffffffffffffffffffffffffffffffffffffffff160217905550808273ffffffffffffffffffffffffffffffffffffffff168473ffffffffffffffffffffffffffffffffffffffff167fddf252ad1be2c89b69c2b068fc378daa952ba7f163c4a11628f55a4df523b3ef60405160405180910390a46111bb8383836001611732565b505050565b60008073ffffffffffffffffffffffffffffffffffffffff166111e283611201565b73ffffffffffffffffffffffffffffffffffffffff1614159050919050565b60006002600083815260200190815260200160002060009054906101000a900473ffffffffffffffffffffffffffffffffffffffff169050919050565b6001816000016000828254019250508190555050565b600081600001549050919050565b600073ffffffffffffffffffffffffffffffffffffffff168273ffffffffffffffffffffffffffffffffffffffff16036112d1576040517f08c379a00000000000000000000000000000000000000000000000000000000081526004016112c890612951565b60405180910390fd5b6112da816111c0565b1561131a576040517f08c379a0000000000000000000000000000000000000000000000000000000008152600401611311906129bd565b60405180910390fd5b61132860008383600161172c565b611331816111c0565b15611371576040517f08c379a0000000000000000000000000000000000000000000000000000000008152600401611368906129bd565b60405180910390fd5b6001600360008473ffffffffffffffffffffffffffffffffffffffff1673ffffffffffffffffffffffffffffffffffffffff16815260200190815260200160002060008282540192505081905550816002600083815260200190815260200160002060006101000a81548173ffffffffffffffffffffffffffffffffffffffff021916908373ffffffffffffffffffffffffffffffffffffffff160217905550808273ffffffffffffffffffffffffffffffffffffffff16600073ffffffffffffffffffffffffffffffffffffffff167fddf252ad1be2c89b69c2b068fc378daa952ba7f163c4a11628f55a4df523b3ef60405160405180910390a461147b600083836001611732565b5050565b8173ffffffffffffffffffffffffffffffffffffffff168373ffffffffffffffffffffffffffffffffffffffff16036114ed576040517f08c379a00000000000000000000000000000000000000000000000000000000081526004016114e490612a29565b60405180910390fd5b80600560008573ffffffffffffffffffffffffffffffffffffffff1673ffffffffffffffffffffffffffffffffffffffff16815260200190815260200160002060008473ffffffffffffffffffffffffffffffffffffffff1673ffffffffffffffffffffffffffffffffffffffff16815260200190815260200160002060006101000a81548160ff0219169083151502179055508173ffffffffffffffffffffffffffffffffffffffff168373ffffffffffffffffffffffffffffffffffffffff167f17307eab39ab6107e8899845ad3d59bd9653f200f220920489ca2b5937696c31836040516115de9190611ae9565b60405180910390a3505050565b6115f6848484610ec7565b61160284848484611738565b611641576040517f08c379a000000000000000000000000000000000000000000000000000000000815260040161163890612abb565b60405180910390fd5b50505050565b606060405180602001604052806000815250905090565b60606000600161166d846118bf565b01905060008167ffffffffffffffff81111561168c5761168b611de1565b5b6040519080825280601f01601f1916602001820160405280156116be5781602001600182028036833780820191505090505b509050600082602001820190505b600115611721578080600190039150507f3031323334353637383961626364656600000000000000000000000000000000600a86061a8153600a858161171557611714612adb565b5b049450600085036116cc575b819350505050919050565b50505050565b50505050565b60006117598473ffffffffffffffffffffffffffffffffffffffff16611a12565b156118b2578373ffffffffffffffffffffffffffffffffffffffff1663150b7a02611782610d71565b8786866040518563ffffffff1660e01b81526004016117a49493929190612b5f565b6020604051808303816000875af19250505080156117e057506040513d601f19601f820116820180604052508101906117dd9190612bc0565b60015b611862573d8060008114611810576040519150601f19603f3d011682016040523d82523d6000602084013e611815565b606091505b50600081510361185a576040517f08c379a000000000000000000000000000000000000000000000000000000000815260040161185190612abb565b60405180910390fd5b805181602001fd5b63150b7a0260e01b7bffffffffffffffffffffffffffffffffffffffffffffffffffffffff1916817bffffffffffffffffffffffffffffffffffffffffffffffffffffffff1916149150506118b7565b600190505b949350505050565b600080600090507a184f03e93ff9f4daa797ed6e38ed64bf6a1f010000000000000000831061191d577a184f03e93ff9f4daa797ed6e38ed64bf6a1f010000000000000000838161191357611912612adb565b5b0492506040810190505b6d04ee2d6d415b85acef8100000000831061195a576d04ee2d6d415b85acef810000000083816119505761194f612adb565b5b0492506020810190505b662386f26fc10000831061198957662386f26fc10000838161197f5761197e612adb565b5b0492506010810190505b6305f5e10083106119b2576305f5e10083816119a8576119a7612adb565b5b0492506008810190505b61271083106119d75761271083816119cd576119cc612adb565b5b0492506004810190505b606483106119fa57606483816119f0576119ef612adb565b5b0492506002810190505b600a8310611a09576001810190505b80915050919050565b6000808273ffffffffffffffffffffffffffffffffffffffff163b119050919050565b6000604051905090565b600080fd5b600080fd5b60007fffffffff0000000000000000000000000000000000000000000000000000000082169050919050565b611a7e81611a49565b8114611a8957600080fd5b50565b600081359050611a9b81611a75565b92915050565b600060208284031215611ab757611ab6611a3f565b5b6000611ac584828501611a8c565b91505092915050565b60008115159050919050565b611ae381611ace565b82525050565b6000602082019050611afe6000830184611ada565b92915050565b600081519050919050565b600082825260208201905092915050565b60005b83811015611b3e578082015181840152602081019050611b23565b60008484015250505050565b6000601f19601f8301169050919050565b6000611b6682611b04565b611b708185611b0f565b9350611b80818560208601611b20565b611b8981611b4a565b840191505092915050565b60006020820190508181036000830152611bae8184611b5b565b905092915050565b6000819050919050565b611bc981611bb6565b8114611bd457600080fd5b50565b600081359050611be681611bc0565b92915050565b600060208284031215611c0257611c01611a3f565b5b6000611c1084828501611bd7565b91505092915050565b600073ffffffffffffffffffffffffffffffffffffffff82169050919050565b6000611c4482611c19565b9050919050565b611c5481611c39565b82525050565b6000602082019050611c6f6000830184611c4b565b92915050565b611c7e81611c39565b8114611c8957600080fd5b50565b600081359050611c9b81611c75565b92915050565b60008060408385031215611cb857611cb7611a3f565b5b6000611cc685828601611c8c565b9250506020611cd785828601611bd7565b9150509250929050565b600080600060608486031215611cfa57611cf9611a3f565b5b6000611d0886828701611c8c565b9350506020611d1986828701611c8c565b9250506040611d2a86828701611bd7565b9150509250925092565b60006060820190508181036000830152611d4e8186611b5b565b90508181036020830152611d628185611b5b565b90508181036040830152611d768184611b5b565b9050949350505050565b600060208284031215611d9657611d95611a3f565b5b6000611da484828501611c8c565b91505092915050565b611db681611bb6565b82525050565b6000602082019050611dd16000830184611dad565b92915050565b600080fd5b600080fd5b7f4e487b7100000000000000000000000000000000000000000000000000000000600052604160045260246000fd5b611e1982611b4a565b810181811067ffffffffffffffff82111715611e3857611e37611de1565b5b80604052505050565b6000611e4b611a35565b9050611e578282611e10565b919050565b600067ffffffffffffffff821115611e7757611e76611de1565b5b611e8082611b4a565b9050602081019050919050565b82818337600083830152505050565b6000611eaf611eaa84611e5c565b611e41565b905082815260208101848484011115611ecb57611eca611ddc565b5b611ed6848285611e8d565b509392505050565b600082601f830112611ef357611ef2611dd7565b5b8135611f03848260208601611e9c565b91505092915050565b600080600060608486031215611f2557611f24611a3f565b5b600084013567ffffffffffffffff811115611f4357611f42611a44565b5b611f4f86828701611ede565b935050602084013567ffffffffffffffff811115611f7057611f6f611a44565b5b611f7c86828701611ede565b925050604084013567ffffffffffffffff811115611f9d57611f9c611a44565b5b611fa986828701611ede565b9150509250925092565b611fbc81611ace565b8114611fc757600080fd5b50565b600081359050611fd981611fb3565b92915050565b60008060408385031215611ff657611ff5611a3f565b5b600061200485828601611c8c565b925050602061201585828601611fca565b9150509250929050565b600067ffffffffffffffff82111561203a57612039611de1565b5b61204382611b4a565b9050602081019050919050565b600061206361205e8461201f565b611e41565b90508281526020810184848401111561207f5761207e611ddc565b5b61208a848285611e8d565b509392505050565b600082601f8301126120a7576120a6611dd7565b5b81356120b7848260208601612050565b91505092915050565b600080600080608085870312156120da576120d9611a3f565b5b60006120e887828801611c8c565b94505060206120f987828801611c8c565b935050604061210a87828801611bd7565b925050606085013567ffffffffffffffff81111561212b5761212a611a44565b5b61213787828801612092565b91505092959194509250565b6000806040838503121561215a57612159611a3f565b5b600061216885828601611c8c565b925050602061217985828601611c8c565b9150509250929050565b7f4e487b7100000000000000000000000000000000000000000000000000000000600052602260045260246000fd5b600060028204905060018216806121ca57607f821691505b6020821081036121dd576121dc612183565b5b50919050565b7f4552433732313a20617070726f76616c20746f2063757272656e74206f776e6560008201527f7200000000000000000000000000000000000000000000000000000000000000602082015250565b600061223f602183611b0f565b915061224a826121e3565b604082019050919050565b6000602082019050818103600083015261226e81612232565b9050919050565b7f4552433732313a20617070726f76652063616c6c6572206973206e6f7420746f60008201527f6b656e206f776e6572206f7220617070726f76656420666f7220616c6c000000602082015250565b60006122d1603d83611b0f565b91506122dc82612275565b604082019050919050565b60006020820190508181036000830152612300816122c4565b9050919050565b7f4552433732313a2063616c6c6572206973206e6f7420746f6b656e206f776e6560008201527f72206f7220617070726f76656400000000000000000000000000000000000000602082015250565b6000612363602d83611b0f565b915061236e82612307565b604082019050919050565b6000602082019050818103600083015261239281612356565b9050919050565b7f4e465420646f6573206e6f742065786973740000000000000000000000000000600082015250565b60006123cf601283611b0f565b91506123da82612399565b602082019050919050565b600060208201905081810360008301526123fe816123c2565b9050919050565b7f4552433732313a20696e76616c696420746f6b656e2049440000000000000000600082015250565b600061243b601883611b0f565b915061244682612405565b602082019050919050565b6000602082019050818103600083015261246a8161242e565b9050919050565b7f4552433732313a2061646472657373207a65726f206973206e6f74206120766160008201527f6c6964206f776e65720000000000000000000000000000000000000000000000602082015250565b60006124cd602983611b0f565b91506124d882612471565b604082019050919050565b600060208201905081810360008301526124fc816124c0565b9050919050565b60008190508160005260206000209050919050565b60006020601f8301049050919050565b600082821b905092915050565b6000600883026125657fffffffffffffffffffffffffffffffffffffffffffffffffffffffffffffffff82612528565b61256f8683612528565b95508019841693508086168417925050509392505050565b6000819050919050565b60006125ac6125a76125a284611bb6565b612587565b611bb6565b9050919050565b6000819050919050565b6125c683612591565b6125da6125d2826125b3565b848454612535565b825550505050565b600090565b6125ef6125e2565b6125fa8184846125bd565b505050565b5b8181101561261e576126136000826125e7565b600181019050612600565b5050565b601f8211156126635761263481612503565b61263d84612518565b8101602085101561264c578190505b61266061265885612518565b8301826125ff565b50505b505050565b600082821c905092915050565b600061268660001984600802612668565b1980831691505092915050565b600061269f8383612675565b9150826002028217905092915050565b6126b882611b04565b67ffffffffffffffff8111156126d1576126d0611de1565b5b6126db82546121b2565b6126e6828285612622565b600060209050601f8311600181146127195760008415612707578287015190505b6127118582612693565b865550612779565b601f19841661272786612503565b60005b8281101561274f5784890151825560018201915060208501945060208101905061272a565b8683101561276c5784890151612768601f891682612675565b8355505b6001600288020188555050505b505050505050565b600081905092915050565b600061279782611b04565b6127a18185612781565b93506127b1818560208601611b20565b80840191505092915050565b60006127c9828561278c565b91506127d5828461278c565b91508190509392505050565b7f4552433732313a207472616e736665722066726f6d20696e636f72726563742060008201527f6f776e6572000000000000000000000000000000000000000000000000000000602082015250565b600061283d602583611b0f565b9150612848826127e1565b604082019050919050565b6000602082019050818103600083015261286c81612830565b9050919050565b7f4552433732313a207472616e7366657220746f20746865207a65726f2061646460008201527f7265737300000000000000000000000000000000000000000000000000000000602082015250565b60006128cf602483611b0f565b91506128da82612873565b604082019050919050565b600060208201905081810360008301526128fe816128c2565b9050919050565b7f4552433732313a206d696e7420746f20746865207a65726f2061646472657373600082015250565b600061293b602083611b0f565b915061294682612905565b602082019050919050565b6000602082019050818103600083015261296a8161292e565b9050919050565b7f4552433732313a20746f6b656e20616c7265616479206d696e74656400000000600082015250565b60006129a7601c83611b0f565b91506129b282612971565b602082019050919050565b600060208201905081810360008301526129d68161299a565b9050919050565b7f4552433732313a20617070726f766520746f2063616c6c657200000000000000600082015250565b6000612a13601983611b0f565b9150612a1e826129dd565b602082019050919050565b60006020820190508181036000830152612a4281612a06565b9050919050565b7f4552433732313a207472616e7366657220746f206e6f6e20455243373231526560008201527f63656976657220696d706c656d656e7465720000000000000000000000000000602082015250565b6000612aa5603283611b0f565b9150612ab082612a49565b604082019050919050565b60006020820190508181036000830152612ad481612a98565b9050919050565b7f4e487b7100000000000000000000000000000000000000000000000000000000600052601260045260246000fd5b600081519050919050565b600082825260208201905092915050565b6000612b3182612b0a565b612b3b8185612b15565b9350612b4b818560208601611b20565b612b5481611b4a565b840191505092915050565b6000608082019050612b746000830187611c4b565b612b816020830186611c4b565b612b8e6040830185611dad565b8181036060830152612ba08184612b26565b905095945050505050565b600081519050612bba81611a75565b92915050565b600060208284031215612bd657612bd5611a3f565b5b6000612be484828501612bab565b9150509291505056fea2646970667358221220f50ef0419f788a6293242a7a3c4c6e835b462c3dafd5cff3c6825feb8dd8e02c64736f6c63430008130033",
  "immutableReferences": {},
  "source": "// SPDX-License-Identifier: GPL-3.0\r\npragma solidity ^0.8.0;\r\n\r\nimport \"@openzeppelin/contracts/token/ERC721/ERC721.sol\";\r\nimport \"@openzeppelin/contracts/utils/Counters.sol\";\r\n\r\n\r\ncontract NFT is ERC721 {\r\n    using Counters for Counters.Counter;\r\n    Counters.Counter private _tokenIds;\r\n\r\n    constructor() ERC721(\"SocialMediaNFT\", \"SMNFT\") {}\r\n\r\n    struct Nft {\r\n        string name;\r\n        string description;\r\n        string image;\r\n    }\r\n\r\n    mapping(uint256 => Nft) private _nfts;\r\n\r\n    function createNFT(string memory name, string memory description, string memory image) public returns (uint256) {\r\n        _tokenIds.increment();\r\n        uint256 newItemId = _tokenIds.current();\r\n        _mint(msg.sender, newItemId);\r\n        _nfts[newItemId] = Nft(name, description, image);\r\n        return newItemId;\r\n    }\r\n\r\n    function getNFT(uint256 tokenId) public view returns (string memory, string memory, string memory) {\r\n        require(_exists(tokenId), \"NFT does not exist\");\r\n        Nft memory nft = _nfts[tokenId];\r\n        \r\n        return (nft.name, nft.description, nft.image);\r\n    }\r\n}\r\n",
  "sourcePath": "C:\\Users\\tanma\\BProject\\contracts\\NFT.sol",
  "compiler": {
    "name": "solc",
    "version": "0.8.19+commit.7dd6d404.Emscripten.clang"
  },
  "schemaVersion": "3.4.13",
  "updatedAt": "2023-04-06T04:25:45.345Z",
  "networkType": "ethereum",
  "devdoc": {
    "events": {
      "Approval(address,address,uint256)": {
        "details": "Emitted when `owner` enables `approved` to manage the `tokenId` token."
      },
      "ApprovalForAll(address,address,bool)": {
        "details": "Emitted when `owner` enables or disables (`approved`) `operator` to manage all of its assets."
      },
      "Transfer(address,address,uint256)": {
        "details": "Emitted when `tokenId` token is transferred from `from` to `to`."
      }
    },
    "kind": "dev",
    "methods": {
      "approve(address,uint256)": {
        "details": "See {IERC721-approve}."
      },
      "balanceOf(address)": {
        "details": "See {IERC721-balanceOf}."
      },
      "getApproved(uint256)": {
        "details": "See {IERC721-getApproved}."
      },
      "isApprovedForAll(address,address)": {
        "details": "See {IERC721-isApprovedForAll}."
      },
      "name()": {
        "details": "See {IERC721Metadata-name}."
      },
      "ownerOf(uint256)": {
        "details": "See {IERC721-ownerOf}."
      },
      "safeTransferFrom(address,address,uint256)": {
        "details": "See {IERC721-safeTransferFrom}."
      },
      "safeTransferFrom(address,address,uint256,bytes)": {
        "details": "See {IERC721-safeTransferFrom}."
      },
      "setApprovalForAll(address,bool)": {
        "details": "See {IERC721-setApprovalForAll}."
      },
      "supportsInterface(bytes4)": {
        "details": "See {IERC165-supportsInterface}."
      },
      "symbol()": {
        "details": "See {IERC721Metadata-symbol}."
      },
      "tokenURI(uint256)": {
        "details": "See {IERC721Metadata-tokenURI}."
      },
      "transferFrom(address,address,uint256)": {
        "details": "See {IERC721-transferFrom}."
      }
    },
    "version": 1
  },
  "userdoc": {
    "kind": "user",
    "methods": {},
    "version": 1
  }
}