{
  "contractName": "Post",
  "abi": [
    {
      "anonymous": false,
      "inputs": [
        {
          "indexed": true,
          "internalType": "address",
          "name": "author",
          "type": "address"
        },
        {
          "indexed": true,
          "internalType": "uint256",
          "name": "id",
          "type": "uint256"
        }
      ],
      "name": "NewPost",
      "type": "event"
    },
    {
      "inputs": [
        {
          "internalType": "string",
          "name": "content",
          "type": "string"
        },
        {
          "internalType": "uint256[]",
          "name": "nftIds",
          "type": "uint256[]"
        }
      ],
      "name": "createPost",
      "outputs": [],
      "stateMutability": "nonpayable",
      "type": "function"
    },
    {
      "inputs": [
        {
          "internalType": "uint256",
          "name": "postId",
          "type": "uint256"
        }
      ],
      "name": "getPost",
      "outputs": [
        {
          "internalType": "address",
          "name": "",
          "type": "address"
        },
        {
          "internalType": "string",
          "name": "",
          "type": "string"
        },
        {
          "internalType": "uint256[]",
          "name": "",
          "type": "uint256[]"
        }
      ],
      "stateMutability": "view",
      "type": "function"
    },
    {
      "inputs": [
        {
          "internalType": "address",
          "name": "user",
          "type": "address"
        }
      ],
      "name": "getUserPosts",
      "outputs": [
        {
          "internalType": "uint256[]",
          "name": "",
          "type": "uint256[]"
        }
      ],
      "stateMutability": "view",
      "type": "function"
    }
  ],
  "bytecode": "0x608060405234801561001057600080fd5b50610e6f806100206000396000f3fe608060405234801561001057600080fd5b50600436106100415760003560e01c80632633306b1461004657806340731c24146100625780639a2194a914610094575b600080fd5b610060600480360381019061005b919061080c565b6100c4565b005b61007c60048036038101906100779190610884565b61025c565b60405161008b93929190610a2f565b60405180910390f35b6100ae60048036038101906100a99190610aa0565b61048f565b6040516100bb9190610acd565b60405180910390f35b6100ce6000610526565b60006100da600061053c565b905060405180608001604052808281526020013373ffffffffffffffffffffffffffffffffffffffff16815260200184815260200183815250600160008381526020019081526020016000206000820151816000015560208201518160010160006101000a81548173ffffffffffffffffffffffffffffffffffffffff021916908373ffffffffffffffffffffffffffffffffffffffff160217905550604082015181600201908161018c9190610cfb565b5060608201518160030190805190602001906101a992919061054a565b50905050600260003373ffffffffffffffffffffffffffffffffffffffff1673ffffffffffffffffffffffffffffffffffffffff168152602001908152602001600020819080600181540180825580915050600190039060005260206000200160009091909190915055803373ffffffffffffffffffffffffffffffffffffffff167f227d44868fd91794465aa9733e53308aaf7503a80920f790d5060691fe03a3e760405160405180910390a3505050565b6000606080600073ffffffffffffffffffffffffffffffffffffffff166001600086815260200190815260200160002060010160009054906101000a900473ffffffffffffffffffffffffffffffffffffffff1673ffffffffffffffffffffffffffffffffffffffff1603610306576040517f08c379a00000000000000000000000000000000000000000000000000000000081526004016102fd90610e19565b60405180910390fd5b600060016000868152602001908152602001600020604051806080016040529081600082015481526020016001820160009054906101000a900473ffffffffffffffffffffffffffffffffffffffff1673ffffffffffffffffffffffffffffffffffffffff1673ffffffffffffffffffffffffffffffffffffffff16815260200160028201805461039690610b1e565b80601f01602080910402602001604051908101604052809291908181526020018280546103c290610b1e565b801561040f5780601f106103e45761010080835404028352916020019161040f565b820191906000526020600020905b8154815290600101906020018083116103f257829003601f168201915b505050505081526020016003820180548060200260200160405190810160405280929190818152602001828054801561046757602002820191906000526020600020905b815481526020019060010190808311610453575b5050505050815250509050806020015181604001518260600151935093509350509193909250565b6060600260008373ffffffffffffffffffffffffffffffffffffffff1673ffffffffffffffffffffffffffffffffffffffff16815260200190815260200160002080548060200260200160405190810160405280929190818152602001828054801561051a57602002820191906000526020600020905b815481526020019060010190808311610506575b50505050509050919050565b6001816000016000828254019250508190555050565b600081600001549050919050565b828054828255906000526020600020908101928215610586579160200282015b8281111561058557825182559160200191906001019061056a565b5b5090506105939190610597565b5090565b5b808211156105b0576000816000905550600101610598565b5090565b6000604051905090565b600080fd5b600080fd5b600080fd5b600080fd5b6000601f19601f8301169050919050565b7f4e487b7100000000000000000000000000000000000000000000000000000000600052604160045260246000fd5b61061b826105d2565b810181811067ffffffffffffffff8211171561063a576106396105e3565b5b80604052505050565b600061064d6105b4565b90506106598282610612565b919050565b600067ffffffffffffffff821115610679576106786105e3565b5b610682826105d2565b9050602081019050919050565b82818337600083830152505050565b60006106b16106ac8461065e565b610643565b9050828152602081018484840111156106cd576106cc6105cd565b5b6106d884828561068f565b509392505050565b600082601f8301126106f5576106f46105c8565b5b813561070584826020860161069e565b91505092915050565b600067ffffffffffffffff821115610729576107286105e3565b5b602082029050602081019050919050565b600080fd5b6000819050919050565b6107528161073f565b811461075d57600080fd5b50565b60008135905061076f81610749565b92915050565b60006107886107838461070e565b610643565b905080838252602082019050602084028301858111156107ab576107aa61073a565b5b835b818110156107d457806107c08882610760565b8452602084019350506020810190506107ad565b5050509392505050565b600082601f8301126107f3576107f26105c8565b5b8135610803848260208601610775565b91505092915050565b60008060408385031215610823576108226105be565b5b600083013567ffffffffffffffff811115610841576108406105c3565b5b61084d858286016106e0565b925050602083013567ffffffffffffffff81111561086e5761086d6105c3565b5b61087a858286016107de565b9150509250929050565b60006020828403121561089a576108996105be565b5b60006108a884828501610760565b91505092915050565b600073ffffffffffffffffffffffffffffffffffffffff82169050919050565b60006108dc826108b1565b9050919050565b6108ec816108d1565b82525050565b600081519050919050565b600082825260208201905092915050565b60005b8381101561092c578082015181840152602081019050610911565b60008484015250505050565b6000610943826108f2565b61094d81856108fd565b935061095d81856020860161090e565b610966816105d2565b840191505092915050565b600081519050919050565b600082825260208201905092915050565b6000819050602082019050919050565b6109a68161073f565b82525050565b60006109b8838361099d565b60208301905092915050565b6000602082019050919050565b60006109dc82610971565b6109e6818561097c565b93506109f18361098d565b8060005b83811015610a22578151610a0988826109ac565b9750610a14836109c4565b9250506001810190506109f5565b5085935050505092915050565b6000606082019050610a4460008301866108e3565b8181036020830152610a568185610938565b90508181036040830152610a6a81846109d1565b9050949350505050565b610a7d816108d1565b8114610a8857600080fd5b50565b600081359050610a9a81610a74565b92915050565b600060208284031215610ab657610ab56105be565b5b6000610ac484828501610a8b565b91505092915050565b60006020820190508181036000830152610ae781846109d1565b905092915050565b7f4e487b7100000000000000000000000000000000000000000000000000000000600052602260045260246000fd5b60006002820490506001821680610b3657607f821691505b602082108103610b4957610b48610aef565b5b50919050565b60008190508160005260206000209050919050565b60006020601f8301049050919050565b600082821b905092915050565b600060088302610bb17fffffffffffffffffffffffffffffffffffffffffffffffffffffffffffffffff82610b74565b610bbb8683610b74565b95508019841693508086168417925050509392505050565b6000819050919050565b6000610bf8610bf3610bee8461073f565b610bd3565b61073f565b9050919050565b6000819050919050565b610c1283610bdd565b610c26610c1e82610bff565b848454610b81565b825550505050565b600090565b610c3b610c2e565b610c46818484610c09565b505050565b5b81811015610c6a57610c5f600082610c33565b600181019050610c4c565b5050565b601f821115610caf57610c8081610b4f565b610c8984610b64565b81016020851015610c98578190505b610cac610ca485610b64565b830182610c4b565b50505b505050565b600082821c905092915050565b6000610cd260001984600802610cb4565b1980831691505092915050565b6000610ceb8383610cc1565b9150826002028217905092915050565b610d04826108f2565b67ffffffffffffffff811115610d1d57610d1c6105e3565b5b610d278254610b1e565b610d32828285610c6e565b600060209050601f831160018114610d655760008415610d53578287015190505b610d5d8582610cdf565b865550610dc5565b601f198416610d7386610b4f565b60005b82811015610d9b57848901518255600182019150602085019450602081019050610d76565b86831015610db85784890151610db4601f891682610cc1565b8355505b6001600288020188555050505b505050505050565b7f506f737420646f6573206e6f7420657869737400000000000000000000000000600082015250565b6000610e036013836108fd565b9150610e0e82610dcd565b602082019050919050565b60006020820190508181036000830152610e3281610df6565b905091905056fea2646970667358221220fe8a402d667cd06078b0b52d8dec635d35f12a5615ecc2849c95a7a48124c2bf64736f6c63430008130033",
  "immutableReferences": {},
  "source": "pragma solidity ^0.8.0;\r\n\r\nimport \"@openzeppelin/contracts/utils/Counters.sol\";\r\n\r\ncontract Post {\r\n    using Counters for Counters.Counter;\r\n    Counters.Counter private _postIds;\r\n\r\n    struct Post {\r\n        uint256 id;\r\n        address author;\r\n        string content;\r\n        uint256[] nftIds;\r\n    }\r\n\r\n    mapping(uint256 => Post) private _posts;\r\n    mapping(address => uint256[]) private _userPosts;\r\n\r\n    event NewPost(address indexed author, uint256 indexed id);\r\n\r\n    function createPost(string memory content, uint256[] memory nftIds) public {\r\n        _postIds.increment();\r\n        uint256 newPostId = _postIds.current();\r\n        _posts[newPostId] = Post(newPostId, msg.sender, content, nftIds);\r\n        _userPosts[msg.sender].push(newPostId);\r\n        emit NewPost(msg.sender, newPostId);\r\n    }\r\n\r\n    function getPost(uint256 postId) public view returns (address, string memory, uint256[] memory) {\r\n        require(_posts[postId].author != address(0), \"Post does not exist\");\r\n        Post memory post = _posts[postId];\r\n        return (post.author, post.content, post.nftIds);\r\n    }\r\n\r\n    function getUserPosts(address user) public view returns (uint256[] memory) {\r\n        return _userPosts[user];\r\n    }\r\n}\r\n",
  "sourcePath": "C:\\Users\\tanma\\BProject\\contracts\\post.sol",
  "compiler": {
    "name": "solc",
    "version": "0.8.19+commit.7dd6d404.Emscripten.clang"
  },
  "schemaVersion": "3.4.13",
  "updatedAt": "2023-04-04T16:30:31.823Z",
  "devdoc": {
    "kind": "dev",
    "methods": {},
    "version": 1
  },
  "userdoc": {
    "kind": "user",
    "methods": {},
    "version": 1
  }
}