{
  "contractName": "UserProfile",
  "abi": [
    {
      "inputs": [
        {
          "internalType": "string",
          "name": "name",
          "type": "string"
        },
        {
          "internalType": "string",
          "name": "bio",
          "type": "string"
        },
        {
          "internalType": "string",
          "name": "profileImage",
          "type": "string"
        },
        {
          "internalType": "string[]",
          "name": "socialLinks",
          "type": "string[]"
        }
      ],
      "name": "updateProfile",
      "outputs": [],
      "stateMutability": "nonpayable",
      "type": "function"
    },
    {
      "inputs": [
        {
          "internalType": "address",
          "name": "user",
          "type": "address"
        }
      ],
      "name": "getProfile",
      "outputs": [
        {
          "internalType": "string",
          "name": "",
          "type": "string"
        },
        {
          "internalType": "string",
          "name": "",
          "type": "string"
        },
        {
          "internalType": "string",
          "name": "",
          "type": "string"
        },
        {
          "internalType": "string[]",
          "name": "",
          "type": "string[]"
        }
      ],
      "stateMutability": "view",
      "type": "function",
      "constant": true
    }
  ],
  "bytecode": "0x608060405234801561001057600080fd5b50610dae806100206000396000f3fe608060405234801561001057600080fd5b50600436106100365760003560e01c80630f53a4701461003b5780636ba57b8f1461006e575b600080fd5b61005560048036038101906100509190610574565b61008a565b604051610065949392919061073d565b60405180910390f35b610088600480360381019061008391906109b9565b610390565b005b60608060608060008060008773ffffffffffffffffffffffffffffffffffffffff1673ffffffffffffffffffffffffffffffffffffffff1681526020019081526020016000206040518060800160405290816000820180546100eb90610abf565b80601f016020809104026020016040519081016040528092919081815260200182805461011790610abf565b80156101645780601f1061013957610100808354040283529160200191610164565b820191906000526020600020905b81548152906001019060200180831161014757829003601f168201915b5050505050815260200160018201805461017d90610abf565b80601f01602080910402602001604051908101604052809291908181526020018280546101a990610abf565b80156101f65780601f106101cb576101008083540402835291602001916101f6565b820191906000526020600020905b8154815290600101906020018083116101d957829003601f168201915b5050505050815260200160028201805461020f90610abf565b80601f016020809104026020016040519081016040528092919081815260200182805461023b90610abf565b80156102885780601f1061025d57610100808354040283529160200191610288565b820191906000526020600020905b81548152906001019060200180831161026b57829003601f168201915b5050505050815260200160038201805480602002602001604051908101604052809291908181526020016000905b828210156103625783829060005260206000200180546102d590610abf565b80601f016020809104026020016040519081016040528092919081815260200182805461030190610abf565b801561034e5780601f106103235761010080835404028352916020019161034e565b820191906000526020600020905b81548152906001019060200180831161033157829003601f168201915b5050505050815260200190600101906102b6565b5050505081525050905080600001518160200151826040015183606001519450945094509450509193509193565b60008060003373ffffffffffffffffffffffffffffffffffffffff1673ffffffffffffffffffffffffffffffffffffffff1681526020019081526020016000209050848160000190816103e39190610ca6565b50838160010190816103f59190610ca6565b50828160020190816104079190610ca6565b5081816003019080519060200190610420929190610428565b505050505050565b828054828255906000526020600020908101928215610470579160200282015b8281111561046f57825182908161045f9190610ca6565b5091602001919060010190610448565b5b50905061047d9190610481565b5090565b5b808211156104a1576000818161049891906104a5565b50600101610482565b5090565b5080546104b190610abf565b6000825580601f106104c357506104e2565b601f0160209004906000526020600020908101906104e191906104e5565b5b50565b5b808211156104fe5760008160009055506001016104e6565b5090565b6000604051905090565b600080fd5b600080fd5b600073ffffffffffffffffffffffffffffffffffffffff82169050919050565b600061054182610516565b9050919050565b61055181610536565b811461055c57600080fd5b50565b60008135905061056e81610548565b92915050565b60006020828403121561058a5761058961050c565b5b60006105988482850161055f565b91505092915050565b600081519050919050565b600082825260208201905092915050565b60005b838110156105db5780820151818401526020810190506105c0565b60008484015250505050565b6000601f19601f8301169050919050565b6000610603826105a1565b61060d81856105ac565b935061061d8185602086016105bd565b610626816105e7565b840191505092915050565b600081519050919050565b600082825260208201905092915050565b6000819050602082019050919050565b600082825260208201905092915050565b6000610679826105a1565b610683818561065d565b93506106938185602086016105bd565b61069c816105e7565b840191505092915050565b60006106b3838361066e565b905092915050565b6000602082019050919050565b60006106d382610631565b6106dd818561063c565b9350836020820285016106ef8561064d565b8060005b8581101561072b578484038952815161070c85826106a7565b9450610717836106bb565b925060208a019950506001810190506106f3565b50829750879550505050505092915050565b6000608082019050818103600083015261075781876105f8565b9050818103602083015261076b81866105f8565b9050818103604083015261077f81856105f8565b9050818103606083015261079381846106c8565b905095945050505050565b600080fd5b600080fd5b7f4e487b7100000000000000000000000000000000000000000000000000000000600052604160045260246000fd5b6107e0826105e7565b810181811067ffffffffffffffff821117156107ff576107fe6107a8565b5b80604052505050565b6000610812610502565b905061081e82826107d7565b919050565b600067ffffffffffffffff82111561083e5761083d6107a8565b5b610847826105e7565b9050602081019050919050565b82818337600083830152505050565b600061087661087184610823565b610808565b905082815260208101848484011115610892576108916107a3565b5b61089d848285610854565b509392505050565b600082601f8301126108ba576108b961079e565b5b81356108ca848260208601610863565b91505092915050565b600067ffffffffffffffff8211156108ee576108ed6107a8565b5b602082029050602081019050919050565b600080fd5b6000610917610912846108d3565b610808565b9050808382526020820190506020840283018581111561093a576109396108ff565b5b835b8181101561098157803567ffffffffffffffff81111561095f5761095e61079e565b5b80860161096c89826108a5565b8552602085019450505060208101905061093c565b5050509392505050565b600082601f8301126109a05761099f61079e565b5b81356109b0848260208601610904565b91505092915050565b600080600080608085870312156109d3576109d261050c565b5b600085013567ffffffffffffffff8111156109f1576109f0610511565b5b6109fd878288016108a5565b945050602085013567ffffffffffffffff811115610a1e57610a1d610511565b5b610a2a878288016108a5565b935050604085013567ffffffffffffffff811115610a4b57610a4a610511565b5b610a57878288016108a5565b925050606085013567ffffffffffffffff811115610a7857610a77610511565b5b610a848782880161098b565b91505092959194509250565b7f4e487b7100000000000000000000000000000000000000000000000000000000600052602260045260246000fd5b60006002820490506001821680610ad757607f821691505b602082108103610aea57610ae9610a90565b5b50919050565b60008190508160005260206000209050919050565b60006020601f8301049050919050565b600082821b905092915050565b600060088302610b527fffffffffffffffffffffffffffffffffffffffffffffffffffffffffffffffff82610b15565b610b5c8683610b15565b95508019841693508086168417925050509392505050565b6000819050919050565b6000819050919050565b6000610ba3610b9e610b9984610b74565b610b7e565b610b74565b9050919050565b6000819050919050565b610bbd83610b88565b610bd1610bc982610baa565b848454610b22565b825550505050565b600090565b610be6610bd9565b610bf1818484610bb4565b505050565b5b81811015610c1557610c0a600082610bde565b600181019050610bf7565b5050565b601f821115610c5a57610c2b81610af0565b610c3484610b05565b81016020851015610c43578190505b610c57610c4f85610b05565b830182610bf6565b50505b505050565b600082821c905092915050565b6000610c7d60001984600802610c5f565b1980831691505092915050565b6000610c968383610c6c565b9150826002028217905092915050565b610caf826105a1565b67ffffffffffffffff811115610cc857610cc76107a8565b5b610cd28254610abf565b610cdd828285610c19565b600060209050601f831160018114610d105760008415610cfe578287015190505b610d088582610c8a565b865550610d70565b601f198416610d1e86610af0565b60005b82811015610d4657848901518255600182019150602085019450602081019050610d21565b86831015610d635784890151610d5f601f891682610c6c565b8355505b6001600288020188555050505b50505050505056fea26469706673582212205f4e7999a803bdb77e79f9bf0a695b51eba088f897e130ad73da2d682a57d47964736f6c63430008130033",
  "immutableReferences": {},
  "source": "// SPDX-License-Identifier: GPL-3.0\r\npragma solidity ^0.8.0;\r\n\r\ncontract UserProfile {\r\n    struct Profile {\r\n        string name;\r\n        string bio;\r\n        string profileImage;\r\n        string[] socialLinks;\r\n    }\r\n    \r\n    mapping(address => Profile) private profiles;\r\n    \r\n    function updateProfile(string memory name, string memory bio, string memory profileImage, string[] memory socialLinks) public {\r\n        Profile storage profile = profiles[msg.sender];\r\n        profile.name = name;\r\n        profile.bio = bio;\r\n        profile.profileImage = profileImage;\r\n        profile.socialLinks = socialLinks;\r\n    }\r\n    \r\n    function getProfile(address user) public view returns (string memory, string memory, string memory, string[] memory) {\r\n        Profile memory profile = profiles[user];\r\n        return (profile.name, profile.bio, profile.profileImage, profile.socialLinks);\r\n    }\r\n}\r\n",
  "sourcePath": "C:\\Users\\tanma\\BProject\\contracts\\UserProfile.sol",
  "compiler": {
    "name": "solc",
    "version": "0.8.19+commit.7dd6d404.Emscripten.clang"
  },
  "schemaVersion": "3.4.13",
  "updatedAt": "2023-04-06T04:25:45.657Z",
  "networkType": "ethereum",
  "devdoc": {
    "kind": "dev",
    "methods": {},
    "version": 1
  },
  "userdoc": {
    "kind": "user",
    "methods": {},
    "version": 1
  }
}